:1000000005C100000C94D9330C9404340C942F34A3
:100010000C945A340C9485340C94B0340C94DB3426
:100020000C94063524C1000022C1000020C100004C
:100030001EC100001CC100001AC1000018C1000050
:1000400016C1000014C1000012C1000010C1000060
:100050000EC100000CC100000AC100000C94313533
:1000600006C100000C942D390C94633900C10000C6
:10007000FEC00000FCC00000FAC00000F8C0000094
:10008000F6C00000F4C00000F2C00000F0C00000A4
:100090000C94B9390C94EF39EAC00000E8C00000B4
:1000A000E6C00000E4C00000E2C00000E0C00000C4
:1000B000DEC00000DCC00000DAC00000D8C00000D4
:1000C000D6C00000D4C000000C94DE2E0C94453A3B
:1000D0000C947B3ACCC000000C94D13A0C94073BB2
:1000E000C6C0000000000A0B02090C0D0E08070331
:1000F00004010000000000000000000000000000FB
:1001000000000000000000000000000000000000EF
:1001100012111000000000000000000000000000AC
:100120000000000000000000000001021020200874
:100130000810204010204080020102010804020142
:1001400001020408102040808040201008040201B1
:10015000800402018040201008040201080402010A
:100160000102040810204080010204081020408091
:1001700005050505070508080808020202020A0A23
:100180000808040404040101010101010101030341
:10019000030303030303040707070C0C0C0C0C0CEC
:1001A0000C0C0202020206060606060606060B0BE9
:1001B0000B0B0B0B0B0B000020002300260029006B
:1001C0002C002F003200000100000301060109018C
:1001D00000002200250028002B002E0031003400F2
:1001E00002010000050108010B01000021002400AC
:1001F00027002A002D003000330001010000040117
:1002000007010A018C39183AA43A303B11241FBE69
:10021000CFEFD1E2DEBFCDBF00E00CBF13E0A0E026
:10022000B2E0E0ECF7E700E00BBF02C007900D92F0
:10023000AE33B107D9F72AE0AEE3B3E001C01D92B7
:10024000AD3DB207E1F711E0C6E0D1E000E006C045
:1002500021970109802FFE010E94AD3BC230D107DA
:1002600080E00807A9F70E944D300C94DE3BC8CE11
:10027000611102C00C9472376130E1F362E0FACF91
:10028000662319F061E00C94AE3760E0FCCF0E9469
:10029000DB3721E0019709F020E0822F0895CF920B
:1002A000DF92EF92FF92CF93882351F16A017B0195
:1002B000CFEFC80F20E030E0A901CB01B6010E94CA
:1002C000553187FF11C0C701B60190580E94C63151
:1002D0009B01AC016C2F70E090E080E0CF91FF902B
:1002E000EF90DF90CF90B2C0C701B6010E94C1313C
:1002F0008C2FCF91FF90EF90DF90CF900C943836F9
:10030000CF91FF90EF90DF90CF9008950F931F93C0
:100310008B019C0183E036952795179507958A9563
:10032000D1F7025C1C4F462F477021E030E0F90105
:1003300002C0EE0FFF1F4A95E2F7AF01F8012081DE
:100340002423CB010196211102C090E080E01F918F
:100350000F9108950F931F938B019C0183E03695B5
:100360002795179507958A95D1F7677081E090E0FA
:1003700001C0880F6A95EAF7F801E25CFC4F208122
:10038000452B31F48095822380831F910F9108952E
:10039000822BFACF2F923F924F925F926F927F9271
:1003A0008F929F92AF92BF92CF92DF92EF92FF9285
:1003B0000F931F93CF93DF93D62EC72E782E692EDF
:1003C00049015A01280161E08D2D0E947237CD2D1F
:1003D000DC2D8E010F5F1F4FA8016D2D7C2D872D09
:1003E000962DB8DF20E030E0A901C201B7010E94DC
:1003F000F732181664F4C201B7010E94C6312B010E
:10040000C501B4010E94C631A201CE0123D0C801AA
:10041000DF91CF911F910F91FF90EF90DF90CF90E0
:10042000BF90AF909F908F907F906F905F904F9014
:100430003F902F900895882341F08150682F70E0FD
:1004400090E080E050E040E085CF0895862FB9012C
:100450000C9438369C01FC01EC51FF4FE491E150C3
:10046000E231E0F4F0E08827E75CFD4F8F4F0C9419
:10047000AD3B4B02520255026C0281024E029602C3
:10048000A202A602BD02D202E702FE0213034E023E
:1004900028033F03540384B5806884BD60E0822F45
:1004A0000C94AE3784B58062F8CF809180008C7F49
:1004B00082608093800080918100807E8061682BC3
:1004C0006093810050938700409386008091800064
:1004D000806880938000E2CF809180008C7F826072
:1004E0008093800080918100807E8061682B609382
:1004F0008100509387004093860080918000806245
:10050000E8CF809180008C7F826080938000809112
:100510008100807E8061682B60938100509387000A
:1005200040938600809180008860D3CF8091B00096
:1005300080688093B0008091B100887F682B6093C1
:10054000B100ACCF8091B0008062F3CF8091900079
:100550008C7F82608093900080919100807E80618A
:10056000682B609391005093970040939600809180
:10057000900080688093900091CF809190008C7F54
:1005800082608093900080919100807E8061682BD2
:100590006093910050939700409396008091900053
:1005A0008062E8CF809190008C7F82608093900081
:1005B00080919100807E8061682B609391005093C0
:1005C000970040939600809190008860D3CF8091EF
:1005D000A0008C7F82608093A0008091A100807E2B
:1005E0008061682B6093A1005093A7004093A60000
:1005F0008091A00080688093A00050CF8091A000DF
:100600008C7F82608093A0008091A100807E8061B9
:10061000682B6093A1005093A7004093A60080919F
:10062000A0008062E8CF8091A0008C7F82608093E0
:10063000A0008091A100807E8061682B6093A10062
:100640005093A7004093A6008091A0008860D3CF6C
:10065000809120018C7F8260809320018091210114
:10066000807E8061682B6093210150932701409325
:100670002601809120018068809320010FCF809116
:1006800020018C7F82608093200180912101807EF7
:100690008061682B609321015093270140932601CC
:1006A000809120018062E8CF809120018C7F826060
:1006B0008093200180912101807E8061682B60936E
:1006C00021015093270140932601809120018860E9
:1006D000D3CF90E080E008950F931F93009709F423
:1006E0008DC06115710509F489C000916C021091EB
:1006F0006D0220916E0230916F020E3F1F4F2F4FFF
:100700003F4F09F06CC04FEF5FEFBA0140936C02AE
:1007100050936D0260936E0270936F0240916C0271
:1007200050916D0260916E0270916F02DC01129621
:10073000ED91FC9180819181A281B3818093C2046B
:100740009093C304A093C404B093C504848195819D
:10075000A681B7818093BE049093BF04A093C00488
:10076000B093C10480859185A285B3858093BA0436
:100770009093BB04A093BC04B093BD04848595857D
:10078000A685B7858093B6049093B704A093B80468
:10079000B093B9041092B2041092B3041092B4044E
:1007A0001092B5040E94EB1280E193E1909348030C
:1007B0008093470390934A038093490390934C039B
:1007C00080934B030E94DA11009731F421E030E06E
:1007D0003093C7042093C6041F910F910895009190
:1007E0006C0210916D0220916E0230916F02DB015C
:1007F0000D931D932D933C93139790CF8FEF9FEF05
:10080000EBCF8F929F92AF92BF92CF92DF92EF92F7
:10081000FF921F93CF93DF934B015C011091C904AA
:1008200082E090E09093C7048093C6048114910401
:10083000A104B10441F48091C904811104C08091E4
:10084000C804C1E08111C0E0C12CD12C7601809197
:10085000C904811106C08091C804811102C0CC2353
:10086000D9F083E090E09093C7048093C604CC2332
:1008700081F1CCE9DFEF111102C00E947516CE01A3
:10088000DF91CF911F91FF90EF90DF90CF90BF90BD
:10089000AF909F908F9008956AE070E080E090E0C4
:1008A0000E94A03580E1C80E87E2D81EE11CF11C31
:1008B0008FEF88169806A806B80631F0C1E08C14B0
:1008C0009D04AE04BF0408F0C0E080E00E940E1258
:1008D000BECFD0E0C0E0CFCFCF92DF92EF92FF92B9
:1008E0000F931F93CF93DF938F3F910511F008F083
:1008F00051C02091C6043091C7042330310539F02E
:100900002091C6043091C7042130310531F424E030
:1009100030E03093C7042093C6046A017B01EC01E8
:1009200083309105A8F011E0AE01C701B6010E9425
:10093000D911AB01BC01CE011123F9F0DF91CF91A8
:100940001F910F91FF90EF90DF90CF900C949E1825
:100950008C01000F111F095B1C4FD8018D919C91D8
:10096000892B09F30E94A8180297E9F6D801ED91A6
:10097000FC91CE011995182FD7CF0E94C01890E096
:1009800080E0DF91CF911F910F91FF90EF90DF906A
:10099000CF9008958FEF9FEFF4CF80E00C940E126C
:1009A000CF93DF9386E090E09093C7048093C604D2
:1009B0000E946712EC01E7E4F3E086E0DF011D929C
:1009C0008A95E9F70E940D161092C7041092C6048A
:1009D000CE01DF91CF9108958091C8040895809150
:1009E000B104089560936C0270936D0280936E025F
:1009F00090936F0290E080E0089560E070E080E8FE
:100A00009FE7089560E070E080E89FE7089560E068
:100A100070E080E89FEF089560E070E080E89FEF6D
:100A2000089560E070E080EC9FEF089560E070E072
:100A300080EC9FEF0895F5DF60932F0A7093300AE2
:100A40008093310A9093320AF1DF6093230A709306
:100A5000240A8093250A9093260ACFDF60932B0AFD
:100A600070932C0A80932D0A90932E0ACBDF60930B
:100A7000270A7093280A8093290A90932A0AC7DFCD
:100A80006093330A7093340A8093350A9093360A40
:100A9000C3DF6093370A7093380A8093390A9093C2
:100AA0003A0A0895CF92DF92EF92FF928091AD0AB9
:100AB00081508230E0F080E08093AD0A8091AC0AF2
:100AC00081508230B0F080E08093AC0A8091AB0A14
:100AD0008150823080F080E08093AB0A809167047F
:100AE000882359F0813069F08091680407C083E061
:100AF000E3CF83E0E9CF83E0EFCF81E0809366042A
:100B000002C0109266048091660490E0FC01EE0F32
:100B1000FF1FEE0FFF1FE759FB4F4081518162819C
:100B2000738140935E0450935F04609360047093FC
:100B30006104880F991F880F991FFC01EF58FB4F24
:100B400080819181A281B381809362049093630438
:100B5000A0936404B09365048FEF80936604809142
:100B6000A30A9091A40AA091A50AB091A60A809325
:100B7000D20A9093D30AA093D40AB093D50AC09016
:100B80000402D0900502E0900602F0900702A7014F
:100B900096016091430A7091440A8091450A9091B0
:100BA000460A0E945531882341F0C092430AD092F0
:100BB000440AE092450AF092460A83E068DB81111C
:100BC0002DC0209108023091090240910A025091F3
:100BD0000B026091A30A7091A40A8091A50A9091DA
:100BE000A60A0E94DE306093A30A7093A40A809341
:100BF000A50A9093A60A84E08093AD0A84E08093CE
:100C0000AB0A8091A80A882339F1813049F190918B
:100C1000A90A81E0992309F180E01FC020910C020C
:100C200030910D0240910E0250910F026091A30A83
:100C30007091A40A8091A50A9091A60A0E94DD30C5
:100C40006093A30A7093A40A8093A50A9093A60ABE
:100C500084E08093AC0AD2CF81E08093A70A02C0DF
:100C60001092A70A2091A70A8091D20A9091D30AE4
:100C7000A091D40AB091D50A2223A1F080938F0AC3
:100C80009093900AA093910AB093920A8091A70A38
:100C90008093A90A8FEF8093A70AFF90EF90DF90CF
:100CA000CF90089580938B0A90938C0AA0938D0A1D
:100CB000B0938E0AEBCFFC0191E080917B0481110F
:100CC00090E092830895895F9E4FFC01808191811D
:100CD0000197A1F4F90180819181A281B381FB0187
:100CE00080839183A283B383F90184819581A68156
:100CF000B781FA0180839183A283B3830895CF9251
:100D0000DF92EF92FF926B017C019F7720E030E051
:100D100040E859E50E94553187FF2BC020E030E0C4
:100D200040E05FE3C701B6010E94F73287FD0EC0C5
:100D300020E030E040E05FE3C701B6010E94DE3012
:100D4000FF90EF90DF90CF900C942F3220E030E0B6
:100D500040E05FEBC701B6010E94F732181684F439
:100D600020E030E0A901C701B6010E94FB326B010F
:100D70007C01C701B601FF90EF90DF90CF900895FE
:100D800020E030E040E05FE3C701B6010E94DD30C3
:100D9000FF90EF90DF90CF900C944231E0910504EA
:100DA000F09106048091C60A9091C70AA091C80AE2
:100DB000B091C90A80839183A283B38308952F924F
:100DC0003F924F925F926F927F928F929F92AF92DB
:100DD000BF92CF92DF92EF92FF920F931F93CF9328
:100DE000DF93CDB7DEB76A970FB6F894DEBF0FBEBC
:100DF000CDBFA0908004B090810400918304109135
:100E0000840421E0A216B10409F083C08091420459
:100E100090914304A0914404B091450440904A0449
:100E200050904B0460904C0470904D04C090460468
:100E3000D0904704E0904804F09049048F3FEFEFD2
:100E40009E07AE07BE07D9F5C701B6016F5F7F4F9A
:100E50008F4F9F4F0E94F231A30192010E94FB32FB
:100E600020E030E040E85FE40E94FB3260938903B9
:100E700070938A0380938B0390938C0380917B04FF
:100E80008F5F843608F042C080937B048091B90A5A
:100E90008150823008F452C080E08093B90AF1E0BA
:100EA000AF16B10409F0ACC08091A70A882309F4F9
:100EB00047C0813009F448C08091A90A42C0BC01F2
:100EC000CD016F5F7F4F8F4F9F4F0E94F231A30183
:100ED00092010E94FB3269877A878B879C87C701C2
:100EE000B6010E94F231A30192010E94FB3220E080
:100EF00030E040E85FE40E94FB329B01AC01698571
:100F00007A858B859C850E94DE30B0CF10927B0461
:100F1000BDCFA114B10409F0B9CFE091B903F091AC
:100F2000BA030190F081E02D80819181A281B3818B
:100F3000F80180839183A283B383A8CF83E0ADCFF0
:100F400081E08093A80A02C01092A80A8091A80AA2
:100F5000882309F496C080918F0A9091900AA091FD
:100F6000910AB091920A8093BE0A9093BF0AA0930F
:100F7000C00AB093C10A8FEF8093A80A2091BE0ADD
:100F80003091BF0A4091C00A5091C10A6091140289
:100F90007091150280911602909117020E94FB3207
:100FA0006B017C01C092C20AD092C30AE092C40ACB
:100FB000F092C50AC092BA0AD092BB0AE092BC0A6B
:100FC000F092BD0A209118023091190240911A0244
:100FD00050911B0260911C0270911D0280911E02B3
:100FE00090911F020E94FB32A70196010E94DD3002
:100FF0006093C60A7093C70A8093C80A9093C90A7F
:10100000D8014D905D906D907C908090930A909067
:10101000940A1091950A0091960AF0909B0AE0902C
:101020009C0AD0909D0AC0909E0AA3019201B4012F
:10103000812F902F0E94F7322F2D3E2D4D2D5C2DAC
:1010400087FD28C0C301B2010E94553118160CF06B
:101050004BC42F2D3E2D4D2D5C2DB401812F902F93
:101060000E94553187FD1DC080919F0A9091A00A72
:10107000A091A10AB091A20A89879A87AB87BC8701
:1010800029C080918B0A90918C0AA0918D0AB09111
:101090008E0A69CFB401812F902F0E94553187FFAE
:1010A0000AC02F2D3E2D4D2D5C2DC301B2010E9493
:1010B000F7321816CCF28091970A9091980AA09175
:1010C000990AB0919A0A89879A87AB87BC87F82CCE
:1010D000E92C68012F2D3E2D4D2D5C2DC301B20151
:1010E0000E94DD306B017C0129853A854B855C854A
:1010F0006091C60A7091C70A8091C80A9091C90A86
:101100000E94DD30A70196010E9459316B017C01DC
:1011100091E0A916B104D1F42091C60A3091C70A12
:101120004091C80A5091C90A60912C0270912D0219
:1011300080912E0290912F020E94FB326093CA0A86
:101140007093CB0A8093CC0A9093CD0A209124020D
:10115000309125024091260250912702C701B60125
:101160000E94FB322091CA0A3091CB0A4091CC0AEE
:101170005091CD0A0E94DE306B017C012091D70A8C
:101180003091D80A4091D90A5091DA0A6091280228
:101190007091290280912A0290912B020E94FB32C9
:1011A0009B01AC01C701B6010E94DE304B018C01EE
:1011B000C0903002D0903102E0903202F0903302C1
:1011C0009B01AC01C701B6010E94553187FD12C0D9
:1011D000C0903402D0903502E0903602F090370291
:1011E0009401A801C701B6010E94F732181614F045
:1011F00064017801AA94AB2889F48091C60A909181
:10120000C70AA091C80AB091C90ABF778093CE0AD5
:101210009093CF0AA093D00AB093D10AE0917F03B4
:10122000F091800380819181019721F08091FA03F0
:101230008823E9F020E030E0A901C701B6010E944F
:10124000F73218160CF054C320E030E040E450E4CC
:101250006091CE0A7091CF0A8091D00A9091D10A04
:101260000E94F73218160CF043C31092AA0A80911C
:10127000AA0A813009F462C3823009F489C381115A
:1012800023C024E632E0AE014F5F5F4FBE016B5FCB
:101290007F4F89E793E017DDE0917F03F0918003B2
:1012A00080819181019721F08091FA03882361F078
:1012B0008091B90A882309F43EC3833009F037C30B
:1012C00081E090E08093B90A80918004909181043C
:1012D000019709F042C06D817E818F8198850FDD75
:1012E0004B015C0120E030E040E853E40E945531BE
:1012F0006FEF87FF0EC020E030E0A901C501B40107
:101300000E94F73260E087FD04C0C501B4010E946D
:10131000C6318EE10E94400169817A818B819C8176
:10132000EEDC4B015C0120E030E040E853E40E9439
:1013300055316FEF87FF0EC020E030E0A901C501F5
:10134000B4010E94F73260E087FD04C0C501B4011A
:101350000E94C6318FE10E94400165E070E080E0AC
:1013600090E00E9486018C0190938A0A8093890AFA
:10137000C701B6019F772091380230913902409120
:101380003A0250913B020E94FB326B017C0120E04B
:1013900030E04FE753E40E94553118160CF422C395
:1013A00020E030E0A901C701B6010E94F73287FDB5
:1013B00020C3B701A601C8010E944F01809180049B
:1013C00090918104019709F09BC060913C0270915B
:1013D0003D0280913E0290913F0291DC6B017C01C5
:1013E00020E030E040E853E40E9455316FEF87FF82
:1013F0000EC020E030E0A901C701B6010E94F7321B
:1014000060E087FD04C0C701B6010E94C63187E2D3
:101410000E9440016091400270914102809142021D
:10142000909143026CDC6B017C0120E030E040E8ED
:1014300053E40E9455316FEF87FF0EC020E030E08B
:10144000A901C701B6010E94F73260E087FD04C020
:10145000C701B6010E94C63186E20E944001609138
:10146000440270914502809146029091470247DC08
:101470006B017C0120E030E040E853E40E945531EC
:101480006FEF87FF0EC020E030E0A901C701B60171
:101490000E94F73260E087FD04C0C701B6010E94D8
:1014A000C63182E30E9440016AE070E080E090E093
:1014B0000E9486018C019093820A8093810AC090D9
:1014C0004802D0904902E0904A02F0904B0220E09E
:1014D00030E04FE753E4C701B6010E9455311816BA
:1014E0000CF48BC220E030E0A901C701B6010E94D4
:1014F000F73287FD89C2B701A601C8010E944F01DA
:101500008091800490918104019709F068C08091D6
:10151000930A9091940AA091950AB091960A8987AE
:101520009A87AB87BC8740902B0A50902C0A60901A
:101530002D0A70902E0AE0918304F0918404C080FB
:10154000D180E280F380A3019201BC01CD010E9411
:10155000553181115DC2C092930AD092940AE092F3
:10156000950AF092960AE7E9FAE08091C60A90910E
:10157000C70AA091C80AB091C90A80839183A28347
:10158000B383609146047091470480914804909120
:1015900049040E94F23120E030E040E85FE40E941C
:1015A000FB326B017C016091420470914304809195
:1015B0004404909145040E94F2319B01AC01C701A3
:1015C000B6010E94DE3020E030E0A9010E94DE304A
:1015D0000E94C631AB01BC0181E090E07DD9A091B1
:1015E0008004B0918104BC8BAB8B119709F08DC244
:1015F000E091B903F091BA030190F081E02D4080B1
:101600005180628073808091890390918A03A091B8
:101610008B03B0918C038D8B9E8BAF8BB88FE09139
:101620008D03F0918E03C080D180E280F380E09141
:10163000BD03F091BE0300811181E0918103F0911F
:10164000820320803180A281B381BA87A9878481F7
:1016500095819E878D87A681B781B88BAF8780855E
:1016600091859A8B898BE0917F03F09180031182A1
:10167000108284E0F801D10101900D928A95E1F782
:10168000E091B703F091B803A985BA85B183A0832F
:1016900085DB20E030E040E05FE3C701B6010E9457
:1016A000FB324B015C01E985FA8520813181428161
:1016B00053810E94FB32D1012D913D914D915C915E
:1016C0000E94DE30F8016083718382839383E0910E
:1016D000B903F091BA03808191819A8F898FA50116
:1016E0009401C301B2010E94DE30A98DBA8D6D93C1
:1016F0007D938D939C931397E091B703F091B8037A
:101700008D859E85918380835ADB48DBAD85BE85C0
:101710002D913D914D915C91C501B4010E94FB3228
:10172000F10120813181428153810E94DE30D80154
:101730006D937D938D939C931397E091B703F091F4
:10174000B8038F8598899183808339DB27DBAF8548
:10175000B8892D913D914D915C91C701B6010E94D0
:10176000FB32F10120813181428153810E94DE30C0
:10177000D8016D937D938D939C931397E091B9035A
:10178000F091BA030190F081E02D8D899E89AF8997
:10179000B88D80839183A283B383E091B703F091E6
:1017A000B803A989BA89B183A08309DBF7DAED858B
:1017B000FE8560817181828193819B01AC010E94D1
:1017C000DE30A985BA852D913D914D915C910E94A5
:1017D000DE304B015C01EF85F88960817181828187
:1017E00093819B01AC010E94DE309B01AC01C501DD
:1017F000B4010E94DE30A989BA892D913D914D91A5
:101800005C910E94DE304B015C0120E030E040EC56
:1018100050E4C701B6010E9459319B01AC01C501DA
:10182000B4010E94FB32F101208131814281538158
:101830000E94DE30D8016D937D938D939C93139716
:10184000E0917F03F09180038B899C899183808351
:1018500040914204509143046091440470914504C6
:101860004F5F5F4F6F4F7F4F40934204509343044D
:101870006093440470934504411551056105710559
:1018800099F48091460490914704A0914804B09146
:1018900049040196A11DB11D80934604909347040D
:1018A000A0934804B09349048091890390918A03DE
:1018B000A0918B03B0918C03E0918304F091840498
:1018C00080839183A283B38380916604882309F483
:1018D000C5C0813009F4C6C081E0909168049923A5
:1018E00009F4BDC080E0BBC0C12CD12C760110CC66
:1018F00020E030E0A901C701B6010E94553187FF01
:1019000014C020E030E040E450E46091CE0A7091D1
:10191000CF0A8091D00A9091D10A0E94F73218160E
:1019200024F481E08093AA0AA2CC82E0FBCF082EA7
:10193000000C990BC7CC82E090E0C4CC2CE532E0DF
:10194000AE014F5F5F4FBE016B5F7F4F89E793E052
:10195000BAD9E0917F03F091800380819181019752
:1019600029F08091FA03882309F4AECC8091B80A5B
:10197000882359F0833029F481E090E08093B80AFD
:10198000A3CC082E000C990BF9CF82E090E0F6CFA3
:1019900024E532E0AE014F5F5F4FBE016B5F7F4FCA
:1019A00089E793E090D9E0917F03F09180038081F3
:1019B0009181019729F08091FA03882309F484CC5E
:1019C0008091B70A882359F0833029F481E090E0B0
:1019D0008093B70A79CC082E000C990BF9CF82E0DE
:1019E00090E0F6CFC12CD12C6FE7E62E63E4F62E03
:1019F000E0CCC12CD12C7601DCCCC12CD12C5FE702
:101A0000E52E53E4F52E77CDC12CD12C760173CD84
:101A100080909B0A90909C0AA0909D0AB0909E0A8C
:101A2000A5019401C301B2010E94553181110BC07F
:101A3000C0929B0AD0929C0AE0929D0AF0929E0A64
:101A4000EFE9FAE092CDA501940169857A858B854D
:101A50009C850E94553187FFEBCF7DCD81E080933F
:101A6000670402C01092670420916704822F90E0FF
:101A7000FC01EE0FFF1FEE0FFF1FE759FB4F4083E6
:101A8000518362837383880F991F880F991FFC010C
:101A9000EF58FB4F8091460490914704A091480471
:101AA000B091490480839183A283B3832093680417
:101AB0008FEF8093670480914E0490914F04A09122
:101AC0005004B09151040196A11DB11D80934E04A4
:101AD00090934F04A0935004B0935104892B8A2B08
:101AE0008B2B99F48091520490915304A09154044B
:101AF000B09155040196A11DB11D8093520490939D
:101B00005304A0935404B09355046A960FB6F89406
:101B1000DEBF0FBECDBFDF91CF911F910F91FF9020
:101B2000EF90DF90CF90BF90AF909F908F907F907D
:101B30006F905F904F903F902F900895CF92DF92DB
:101B4000EF92FF92C0900002D0900102E09002025A
:101B5000F0900302A701960160914F0A7091500A1C
:101B60008091510A9091520A0E945531882341F088
:101B7000C0924F0AD092500AE092510AF092520A53
:101B80008BE00E9447018093D60A882379F020E0F9
:101B900030E0A90160914C0270914D0280914E029B
:101BA00090914F020E945531811103C081E08093D2
:101BB00082048091560490915704A0915804B091EA
:101BC00059040196A11DB11D8093560490935704AA
:101BD000A0935804B0935904892B8A2B8B2B99F42A
:101BE00080915A0490915B04A0915C04B0915D04D3
:101BF0000196A11DB11D80935A0490935B04A0939C
:101C00005C04B0935D04FF90EF90DF90CF90089557
:101C10004F925F926F927F92AF92BF92CF92DF927C
:101C2000EF92FF920F931F93CF93DF9384E090E0A6
:101C30000E941B05E9E7F3E08CE191E0DF01EC0194
:101C40001D922197E9F7C0E8D4E0D783C68383E8E3
:101C500094E09093BA038093B9030AE414E0158BDF
:101C6000048B25E034E037AF26AF4FEF53E05093BD
:101C7000BE034093BD032AE334E03093BC032093BA
:101C8000BB032CE334E03093C0032093BF0321E077
:101C900034E03093C2032093C10323E034E0309357
:101CA000C4032093C303F093E403E093E303F583B9
:101CB000E48321E030E03983288320E234E06CE0E3
:101CC00074E0D9016D937C9360E174E07093230418
:101CD0006093220464E174E070932504609324040B
:101CE00068E174E070932704609326046CE174E06B
:101CF000709329046093280467EDC62E6AE0D62EFF
:101D0000EA01D982C8823187208725EA32E0338709
:101D1000228725E834E0DC012D933C9340E050E03D
:101D200060E87FEB40937C0450937D0460937E04D5
:101D300070937F044FE652E163E87AE3E801488359
:101D400059836A837B834AE254E08BEE90E2ADE1F3
:101D5000BDEDEA0188839983AA83BB838EE19DE769
:101D6000A4E8B4ED80932E0490932F04A093300444
:101D7000B093310485E096E7A1E5BEE0809332049C
:101D800090933304A0933404B093350488E991E828
:101D9000A2E2BEEF8093360490933704A0933804F8
:101DA000B0933904ADE6B3E0B383A283EDE4F3E08E
:101DB0001196FC93EE938AEA92E091838083938359
:101DC000828395838483978386839187808767EB5B
:101DD0007AE0738762876CEA7AE0758764876BEADA
:101DE0007AE0778766870DEA1AE0118B008B738B98
:101DF000628B958B848B978B868B918F808F68EB12
:101E00007AE0738F628F69EB7AE0758F648F978FBA
:101E1000868F80E494E015969C938E931497139686
:101E20005C934E93129717963C932E931697EEEB76
:101E3000FAE089E1DF011D928A95E9F784E0E60185
:101E400019928A95E9F7CBE3DAE08FE7FE01119268
:101E50008A95E9F71092BA0A1092BB0A1092BC0A4E
:101E60001092BD0ADD24D394D092AF0A70E0A72E61
:101E700072E0B72EF50184819581A681B7818887AC
:101E80009987AA87BB87412C512C32014394498200
:101E90005A826B827C8260E083E00E943801DD829E
:101EA00062E082E00E94723743E050E062E575E054
:101EB00080E00E945F33CC24CA94C092AA0A18A280
:101EC000D092B20A49A25AA26BA27CA261E08EE132
:101ED0000E943801DDA2188ED092B10A498E5A8E26
:101EE0006B8E7C8E61E08FE10E943801DD8E109256
:101EF000830AD092B00A4092840A5092850A609276
:101F0000860A7092870AE12CF12C8701A8019701BB
:101F100065E070E080E090E00E94CA0190938A0A38
:101F20008093890AD092880A18AAD092B40A49AA42
:101F30005AAA6BAA7CAA61E087E20E943801DDAA56
:101F400018AED092B50A49AE5AAE6BAE7CAE61E027
:101F500086E20E943801DDAE18A6D092B30A49A6E7
:101F60005AA66BA67CA661E082E30E943801DDA63A
:101F700010927B0AD092AE0A40927C0A50927D0A5F
:101F800060927E0A70927F0AA80197016AE070E071
:101F900080E090E00E94CA019093820A8093810AB7
:101FA000D092800A1C86D092B60AF5018081918178
:101FB000A281B3818C8B9D8BAE8BBF8B4D865E8651
:101FC0006F86788A60E08BE00E943801D98A809120
:101FD000500290915102A0915202B091530280930D
:101FE000A30A9093A40AA093A50AB093A60AC0924C
:101FF0006604C092670410926804E5018889998993
:10200000AA89BB8980938B0A90938C0AA0938D0A2E
:10201000B0938E0AC092A70AC092A80A80912B0A98
:1020200090912C0AA0912D0AB0912E0A8093930AC8
:102030009093940AA093950AB093960A80939B0A72
:1020400090939C0AA0939D0AB0939E0A88A199A19F
:10205000AAA1BBA18093D70A9093D80AA093D90ACA
:10206000B093DA0ADF91CF911F910F91FF90EF901B
:10207000DF90CF90BF90AF907F906F905F904F9028
:10208000089580913B0A811103C081E080933B0A4F
:1020900080915B0A811103C081E080935B0A80918B
:1020A000530A811103C081E08093530A8091830A0F
:1020B00081112EC081E08093830A8091840A9091DF
:1020C000850AA091860AB091870A0197A105B105FA
:1020D000F9F48091880A8823D9F065E070E080E007
:1020E00090E00E94860190938A0A8093890A40E0DA
:1020F00050E0BA010E944F0165E070E080E090E09E
:102100000E94860190938A0A8093890A0E941B028A
:1021100080916B0A811103C081E080936B0A8091EA
:10212000730A811103C081E08093730A8091630A6E
:10213000811103C081E08093630A80917B0A811141
:102140002EC081E080937B0A80917C0A90917D0A69
:10215000A0917E0AB0917F0A0197A105B105F9F41B
:102160008091800A8823D9F06AE070E080E090E0F6
:102170000E9486019093820A8093810A40E050E099
:10218000BA010E944F016AE070E080E090E00E9496
:1021900086019093820A8093810A0E941B0280919B
:1021A000470A811103C081E08093470A08954F9246
:1021B0005F926F927F928F929F92AF92BF92CF92D7
:1021C000DF92EF92FF920F931F93F8944090A10437
:1021D0005090A2046090A3047090A404C090950451
:1021E000D0909604E0909704F09098044130510507
:1021F00009F0A4C09B01AC0124193509460957090F
:1022000029013A0100919D0410919E0420919F04A0
:102210003091A00448015901840C951CA61CB71CE0
:1022200080169106A206B306A0F4009199041091BD
:102230009A0420919B0430919C040F5F1F4F2F4FF5
:102240003F4F0093990410939A0420939B0430937A
:102250009C0480929D0490929E04A0929F04B09250
:10226000A0040091990410919A0420919B0430914C
:102270009C048092A5049092A604A092A704B09218
:10228000A8040093A9041093AA042093AB043093EC
:10229000AC046093A1047093A2048093A304909370
:1022A000A404A8EEB3E0A30192010E94B53B6C0D1B
:1022B0007D1D8E1D9F1D60939504709396048093E1
:1022C00097049093980400916C0210916D022091F4
:1022D0006E0230916F020F3F1F4F2F4F3F4FF1F0B3
:1022E00000916C0210916D0220916E0230916F028C
:1022F0000E3F1F4F2F4F3F4F89F0C0906C02D09080
:102300006D02E0906E02F0906F0221E08C149D044B
:10231000AE04BF0408F420E02093B10478941F9128
:102320000F91FF90EF90DF90CF90BF90AF909F9074
:102330008F907F906F905F904F9008954B015C015C
:1023400084189508A608B708A3019201261B370B2D
:10235000480B590B6415750586059705D0F0821654
:102360009306A406B50640F420E030E0A9018114EC
:102370009104A104B10491F4A8EEB3E00E94B53B2E
:10238000A7019601261B370B480B590BCA01B9014F
:10239000C5CF82169306A406B50670F7A8EEB3E083
:1023A000A50194010E94B53B6C0D7D1D8E1D9F1DE6
:1023B000B5CFFDCECF93DF9300D01F92CDB7DEB760
:1023C0001C821B821A8219821092AD041092AE04F4
:1023D0001092AF041092B004BE016F5F7F4FCE0128
:1023E00003960E94AE2E69817A818B819C810E9426
:1023F000CF27009761F4BE016F5F7F4FCE01039638
:102400000E94BA2E69817A818B819C812FD50F9091
:102410000F900F900F90DF91CF910895FF920F933F
:102420001F93CF93DF93082F60E070E0CB010E94F1
:10243000A035FF24F3940E94B826EC01892B89F083
:1024400010E0CE3F8FEFD80769F0002361F160E024
:1024500070E0CB010E94A03581E090E0892B59F318
:1024600022C011E026D5EC01892B21F0CE3F8FEF61
:10247000D80759F711111EC011E0229609F410E097
:102480000E946826EC01892B21F0CE3F8FEFD80700
:10249000E1F6111111C011E0CE3F8FEFD80709F41A
:1024A00010E001110BC0CE01DF91CF911F910F9170
:1024B000FF90089511E0E4CF11E0F3CF60E070E009
:1024C000CB010E94A0351F25812F90E0C7CFCF936D
:1024D000DF938091B104882321F060E070E0CB01AC
:1024E0004DD636D6D0E0C0E0892B71F06AE070E0BE
:1024F00080E090E00E94A03581E090DF29D621960F
:10250000C03D27E0D20781F728D60E9423281092E9
:10251000C9041092C8041092C2041092C30410920D
:10252000C4041092C5041092BE041092BF0410920D
:10253000C0041092C1041092BA041092BB0410920D
:10254000BC041092BD041092B6041092B70410920D
:10255000B8041092B9041092B2041092B30410920D
:10256000B4041092B5044EEF5FEF6FEF7FEF40932E
:102570006C0250936D0260936E0270936F02109222
:10258000B104E5EAF4E028E0DF011D922A95E9F7BD
:102590001092A1041092A2041092A3041092A40419
:1025A00010929D0410929E0410929F041092A00419
:1025B0001092990410929A0410929B0410929C0419
:1025C0001092950410929604109297041092980419
:1025D000DF91CF9108951092D5041092D6041092F5
:1025E000D7041092D8041092D4048091DD04909105
:1025F000DE049093D3048093D2041092D1041092FD
:10260000D0041092CC041092CD041092CE041092FB
:10261000CF041092DA041092D90490E080E008957B
:10262000CF92DF92EF92FF920F931F93CF938C0183
:10263000019709F055C02091DD043091DE048091AE
:10264000D2049091D3044091DD045091DE04509364
:10265000D3044093D2042817390781F01092D10493
:102660001092D0041092CC041092CD041092CE049B
:102670001092CF041092DA041092D9048091DD04F4
:102680009091DE04019761F58091D9049091DA046C
:10269000892B21F480917002811112C08091D9049C
:1026A0009091DA040197E1F48091CC049091CD04EB
:1026B000A091CE04B091CF040197A105B10581F49A
:1026C0001092CC041092CD041092CE041092CF043C
:1026D0001092700282E090E09093DA048093D90423
:1026E0008091DD049091DE04019709F01CC1809176
:1026F000F3049091F4048017910709F014C18091BC
:10270000EF049091F004A091F104B091F2040097CD
:1027100009F409C12091EE0421110DC04091EF048C
:102720005091F0046091F1047091F204452B462B16
:10273000472B09F4F8C02091D9043091DA042230F3
:10274000310509F0F0C02091D0042111ECC0FC014A
:10275000C080D180E280F3808091D404882309F482
:10276000D3C08091E0049091E104892B09F4FEC06C
:102770002091E0043091E10481E02230310509F03C
:1027800080E02091E0043091E104C1E02130310586
:1027900049F02091E0043091E104C1E0223031059C
:1027A00009F0C0E0882309F456C02091EA04309172
:1027B000EB044091EC045091ED04C701B6010E9476
:1027C000F73287FD14C02091EA043091EB04409168
:1027D000EC045091ED046091D5047091D604809181
:1027E000D7049091D8040E94553187FD22C02091D2
:1027F000EA043091EB044091EC045091ED04C701E0
:10280000B6010E94F732181634F52091EA0430918F
:10281000EB044091EC045091ED046091D50470916B
:10282000D6048091D7049091D8040E94553181112B
:1028300012C08091E2049091E304A091E404B0916D
:10284000E504892B8A2B8B2B19F481E08093D1042A
:1028500081E08093D004CC2309F456C02091EA048F
:102860003091EB044091EC045091ED04C701B601A6
:102870000E94553187FF14C02091EA043091EB0487
:102880004091EC045091ED046091D5047091D60410
:102890008091D7049091D8040E94F73287FF22C01C
:1028A0002091EA043091EB044091EC045091ED0446
:1028B000C701B6010E945531811126C02091EA045A
:1028C0003091EB044091EC045091ED046091D504FB
:1028D0007091D6048091D7049091D8040E94F73269
:1028E000181694F48091E2049091E304A091E4041A
:1028F000B091E504892B8A2B8B2B19F481E080930E
:10290000D10481E08093D00481E09091D0049111B2
:1029100080E08093D404C092D504D092D604E09293
:10292000D704F092D8040130110509F067C18091F5
:10293000D9049091DA04892BD9F41092DF04109213
:10294000D00480917002882379F082E090E0909327
:10295000DA048093D904109270022091DD04309142
:10296000DE0481E0232BE9F080E01BC081E009CF89
:10297000109270028091DF04882349F01092D104F4
:102980001092DA041092D9041092DF04EDCF8091F6
:10299000DD049091DE04892BE1F08091D004109247
:1029A000D0042091D9043091DA042230310509F4A1
:1029B0005EC088F42115310509F448C02130310585
:1029C00009F4F3C01092D1041092D0041092DF04E5
:1029D00038C081E0E6CF2330310509F4B1C024309E
:1029E000310581F74091CC045091CD046091CE0423
:1029F0007091CF04411551056105710561F0415099
:102A00005109610971094093CC045093CD0460933E
:102A1000CE047093CF044091CC045091CD046091CA
:102A2000CE047091CF04452B462B472BD9F420912F
:102A3000DB043091DC042130310509F046C01092EE
:102A4000D1041092DA041092D9040CC08091700263
:102A5000882341F082E090E09093DA048093D904D7
:102A6000109270021092CA048091D104CEC08823C3
:102A7000C9F38091E2049091E304A091E404B09141
:102A8000E504181619061A061B060CF07DC0809185
:102A9000DD049091DE04019709F076C08091E20494
:102AA0009091E304A091E404B091E5048093CC04F8
:102AB0009093CD04A093CE04B093CF0483E090E034
:102AC0009093DA048093D904CDCF4091E6045091DD
:102AD000E7046091E8047091E904452B462B472BED
:102AE000A9F01092D1048091E6049091E704A0919E
:102AF000E804B091E9048093CC049093CD04A093B2
:102B0000CE04B093CF0481E090E0DACF882399F02F
:102B10008091710290917202A0917302B09174023F
:102B20008093CC049093CD04A093CE04B093CF04B3
:102B300084E090E0C5CF1092D10482E090E0C0CF55
:102B40008091CC049091CD04A091CE04B091CF049B
:102B50000097A105B10559F00197A109B10980932A
:102B6000CC049093CD04A093CE04B093CF04809175
:102B7000CC049091CD04A091CE04B091CF04892BC8
:102B80008A2B8B2B09F06ECF80917102909172028B
:102B9000A0917302B0917402892B8A2B8B2B09F4BC
:102BA0004ECF81E08093D104B3CF4091CC045091BB
:102BB000CD046091CE047091CF044115510561059B
:102BC000710561F041505109610971094093CC04CC
:102BD0005093CD046093CE047093CF044091CC0405
:102BE0005091CD046091CE047091CF04452B462BBB
:102BF000472B09F037CF8111C7CF9FCF8091CA04EF
:102C0000882309F431CF8091CB04CF911F910F918C
:102C1000FF90EF90DF90CF9008951092D50410921E
:102C2000D6041092D7041092D8041092D4041092B3
:102C3000DA041092D9041092D3041092D2041092A4
:102C4000F4041092F3041092D1041092D004109264
:102C5000CC041092CD041092CE041092CF041092A6
:102C6000CB041092CA041092EF041092F004109258
:102C7000F1041092F2041092EE041092EA04109201
:102C8000EB041092EC041092ED0488EE93E0A0E0C7
:102C9000B0E08093710290937202A0937302B0939C
:102CA00074021092E6041092E7041092E804109265
:102CB000E9041092E2041092E3041092E4041092EA
:102CC000E5041092E1041092E00481E08093700228
:102CD0001092DF041092DE041092DD041092DC04E6
:102CE0001092DB0490E080E008958091DD049091E3
:102CF000DE04892B19F580917002882351F08091B0
:102D0000DF04811106C081E08093CB048093CA0464
:102D100008952091DF043091700281E090E0332328
:102D200011F090E080E030E082239323892B21F0A2
:102D30001092CB0481E0EACF1092CA04089582E099
:102D400090E0FA01918380838FEF9FEF0895CF93F6
:102D5000DF93EA01009711F00E943D291982188241
:102D600090E080E0DF91CF910895DB01009719F4A6
:102D70008FEF8C9308952EEF2C93FC013F96EF304C
:102D8000F10508F034C08827E753F94E8F4F0C94B3
:102D9000AD3BF516F316F116EF16ED16E916EB1628
:102DA000E716E516E316E016DC16D816DE16F7165B
:102DB00080E311968C93089589E2FBCF82E2F9CFEC
:102DC00011961C92089583E2F4CF81E2F2CF81E163
:102DD000F0CF87E2EECF8AE2ECCF80E1EACF84E267
:102DE000E8CF88E2E6CF86E2E4CF81E3E2CF80E27B
:102DF000E0CF80910105909102050895909302051E
:102E00008093010508958091000508959091000533
:102E1000892B809300050895982F90958091000547
:102E200089238093000508958091FF04089580917F
:102E3000FD049091FE0408956115710559F0FB01A0
:102E400030E020E070E060E02417350719F06115EC
:102E5000710511F0CB010895A081B181A817B907C0
:102E600009F4BF012F5F3F4F3696EECF80910305E7
:102E700081111CC060D266D29093F6048093F50451
:102E80000E944E210E9460219093FA048093F904DD
:102E90000E94D0250E94D7259093F8048093F704D0
:102EA00081E08093030590E080E0089584EF9FEF38
:102EB00008958F929F92AF92BF92CF92DF92EF923E
:102EC000FF920F931F93CF93DF9300D000D000D0D9
:102ED0001F92CDB7DEB71A86198618861F821E820A
:102EE0001D821C821B821A8219828091030507EFC2
:102EF0001FEF882309F49CC08E010D5F1F4F9E01B8
:102F00002B5F3F4FAE01495F5F4FBE01675F7F4F51
:102F100090E080E00E9454278C01009721F00596F4
:102F2000029708F0DBC029853A852115310509F49F
:102F300002C1ED80FE804B815C81B701640F751F7B
:102F40008F8198858617970708F4F5C0E20EF31E67
:102F5000D7019C91903C09F07FC04230510508F4A4
:102F60007BC011968C914091010550910205452B33
:102F700009F49CC0913F08F071C02CE1290F2D305D
:102F800008F48BC02DE2290F203108F489C0903C51
:102F900021F48150823008F483C088E3890F8B309C
:102FA00008F481C095EBC92E96E1D92EEFE9F6E140
:102FB0006D817E81AE014F5F5F4F89859A8519953E
:102FC0005C01C114D104A1F189809A80811491041B
:102FD00079F18B819C818815990508F487C010E0F0
:102FE00000E04B815C8170E060E0C7010E94D73B4C
:102FF00001151105E9F449815A8169857A858D8128
:103000009E81680F791FC501F6011995E980FA8044
:103010000D811E812F81388549855A856FEF7FEF9D
:1030200081E090E00E94EF268C01892B09F056C0C8
:10303000C8012A960FB6F894DEBF0FBECDBFDF9150
:10304000CF911F910F91FF90EF90DF90CF90BF90A5
:10305000AF909F908F90089580E085CF30E020E082
:10306000220F331FF901EB50FB4F0190F081E02D4F
:10307000309709F497CF892F90E01995009709F4BC
:1030800091CFDC011296ED91FC9113971496CD909F
:10309000DC90309709F08CCF1FC021E030E0E0CF0A
:1030A00022E030E0DDCF23E030E0DACFD12CC12CBC
:1030B000E7EAF6E19F3F09F07BCFE091F504F0915C
:1030C000F604309721F4C90104EF1FEF0CC08FEF15
:1030D00090E019950097A9F604EF1FEF89859A856E
:1030E000009709F4A5CF0E943D29A2CF0E941E2877
:1030F0008C0189859A850E943D2970E060E0C401B9
:103100000E94B72798878F830E94EC269E838D8329
:103110006F8178856115710559F0C8010E949C2A5C
:103120009A87898706EF1FEF892B09F058CF59CF6F
:1031300008EF1FEF56CF08EF1FEFD0CF2091030508
:10314000222319F020E00C94652187EF9FEF08956A
:10315000809101059091020508950E94DC250E944E
:103160003625F5D0E5EFF4E088E0DF011D928A9581
:10317000E9F71092030590E080E008950C94932302
:1031800021E040E050E0BA010C94652186E090E037
:10319000FA019183808390E080E0089547E050E059
:1031A0006DEA72E049CEDF92EF92FF920F931F9388
:1031B000CF93DF938A01EC01C60FD71FE09007057C
:1031C000F0900805D9800E940628D816190678F0D4
:1031D00082E090E0F801918380838EEF9FEFDF9192
:1031E000CF911F910F91FF90EF90DF900895EF28FE
:1031F00041F482E090E0F8019183808384EF9FEFB7
:10320000EECF89818093060590E00196F8019183C5
:10321000808390E080E0E3CFCF93DF93EA010E94C8
:103220004424882321F00E9413280E94452482E030
:1032300090E0998388838BEF9FEFDF91CF91089582
:10324000CF93DF93EB0186E0FB0111928A95E9F7BA
:103250008FEF8883D8DD8983E7DD8A83E8DD9D836E
:103260008C83DF91CF910895CF93DF93EA010E9481
:103270004724811109C082E090E09983888385EF1B
:103280009FEFDF91CF91089590E080E0B7DD81E07E
:1032900090E09983888390E080E0F3CF0F931F93B1
:1032A000CF93DF93EA018C01060F171F0E9447247A
:1032B00081110BC082E090E09983888385EF9FEFB6
:1032C000DF91CF911F910F910895F8018181823094
:1032D00038F082E090E0998388838EEF9FEFF0CF03
:1032E00081E090E08BDD88E090E09983888390E036
:1032F00080E0E6CFCF93DF930097D1F4EB01FB01A1
:10330000329686E0DF011D928A95E9F78FEF888378
:1033100085E089831A820E9406288B830E940528F3
:103320009D838C8381E08E838F83DF91CF9108957D
:10333000DF91CF911ACD8EEC98E1909305058093A3
:103340000405089580910405909105050895109253
:1033500005051092040508958091070590910805D0
:103360000895411105C0611571058105910561F050
:1033700060930705709308058093090590930A05EB
:1033800040930B0581E0089580E00895FF920F932C
:103390001F93CF93DF938A01EC01C60FD71FF980EB
:1033A0000E940628F816190668F082E090E0F801FD
:1033B000918380838EEF9FEFDF91CF911F910F91CB
:1033C000FF9008956C817D818E819F814B81C9DF43
:1033D000811108C082E090E0F8019183808384EF3E
:1033E0009FEFEACF89818093060590E00196F8016E
:1033F0009183808390E080E0DFCFCF93DF93EA0179
:10340000FC01E60FF71F64817581868197814381F6
:10341000A8DF811109C082E090E09983888384EF5E
:103420009FEFDF91CF91089581E090E099838883A9
:1034300090E080E0F6CFE7E0F5E0408151816281E5
:103440007381480F511D611D711D4083518362833B
:1034500073830895CF93C09106054C2F50E060917F
:1034600007057091080501960E94CE3B8C2FE3DF83
:1034700010920605CF910895009799F48091070561
:10348000909108052FEFFB012083892B59F02091A3
:10349000060530E02F5F3F4F2417350719F4CB01A5
:1034A000D9CF63CC0895009799F480910705909146
:1034B00008052FEFFB012083892B59F02091060589
:1034C00030E02F5F3F4F2417350719F4CB01C2CFEF
:1034D0004CCC089523E1AC01249FC001259F900DA1
:1034E0001124E0911005F0911105E80FF91F2381D7
:1034F00034812250310981E02230310508F080E02A
:1035000008950F931F93CF93DF93009112051091AD
:103510001305D0E0C0E080E00C171D0749F491E0EE
:10352000811190E0892FDF91CF911F910F91089524
:103530008111F5CFCE01CEDF2196EECFA0911005FF
:10354000B0911105109729F12091120530911305C2
:1035500082179307F0F453E1589F9001599F300D63
:103560001124A20FB31FED91FC911197309789F0B0
:1035700012968C91681768F48BE0689FE00DF11D3E
:10358000112480819181892B21F081E0928149175A
:1035900008F080E008959C0143E1429FC001439FF1
:1035A000900D1124E0911005F0911105E80FF91F1D
:1035B0008385823099F481E090E065817681409145
:1035C0007502509176026417750711F490E080E05F
:1035D000892B21F081E02230310508F080E0089548
:1035E000EF92FF920F931F93CF93DF93EA01FC01B9
:1035F000E60FF71F02811381E480F5804F2D6E2DB9
:10360000C8019CDF81110DC082E090E0998388831E
:103610008EEF9FEFDF91CF911F910F91FF90EF9071
:103620000895C80157DF882339F082E090E099833C
:10363000888388EF9FEFEECF10937C0200937B028C
:10364000E0927D02F0927E0281E090E0998388838F
:1036500090E080E0DFCFCF92DF92EF92FF920F9366
:103660001F93CF93DF937A01EC01C60FD71FC09051
:103670007B02D0907C0200917D0210917E02412F4E
:10368000602FC6015BDF811110C082E090E0F7017E
:10369000918380838AEF9FEFDF91CF911F910F91EC
:1036A000FF90EF90DF90CF900895C60113DF88233D
:1036B00041F082E090E0F7019183808388EF9FEFF3
:1036C000EBCF4C815D816E817F819A8189818F3FB3
:1036D00041F082E090E0F701918380838EEF9FEFCD
:1036E000DBCFE3E1EC9D9001ED9D300D1124E091E5
:1036F0001005F0911105E20FF31F0190F081E02D0C
:103700002BE0029FE00DF11D11240190F081E02DCE
:1037100027E0129FE00DF11D1124808391838B819E
:10372000828343835483658376831F5F10937E0275
:1037300081E090E0F7019183808390E080E0ACCF5E
:10374000EF92FF920F931F93CF93DF937A018C0137
:10375000060F171FC0911005D0911105209781F019
:1037600021E030E0F801828193814091120550916F
:1037700013058417950710F030E020E0232B71F437
:1037800082E090E0F701918380838EEF9FEFDF91DD
:10379000CF911F910F91FF90EF90089543E1489FC3
:1037A0009001499F300D1124C20FD31F93DE88234F
:1037B00041F082E090E0F7019183808388EF9FEFF2
:1037C000E6CFF8012481358120383105C8F687819C
:1037D0008111D6CF4181842F90E08F7E009741F0F8
:1037E00082E090E0F7019183808386EF9FEFCFCF57
:1037F0004F833E832D83268128871986223010F43B
:1038000021E0288721E030E0F70131832083BFCF1A
:1038100088E090E0FA019183808390E080E0089551
:10382000FB018FEF808381E181838FEF9FEF938393
:10383000828380E890E095838483168217820895BE
:10384000FB018FEF808391E0918382839383848354
:1038500084E3858381E090E0978386830895BF9217
:10386000CF92DF92EF92FF920F931F93CF93DF934C
:10387000DA01FC01E60FF71F8181813081F082E0DF
:1038800090E08D939C938FEF9FEFDF91CF911F91ED
:103890000F91FF90EF90DF90CF90BF900895C2817D
:1038A000D381B480858106811781E0901005F09066
:1038B0001105E114F10439F482E090E08D939C93BA
:1038C0008CEF9FEFE2CF2091120530911305C217C4
:1038D000D30738F082E090E08D939C938EEF9FEFBA
:1038E000D4CFC230D10538F082E090E08D939C9324
:1038F00086EF9FEFCACF9B2D9D7FB1F78130A1F757
:10390000B11005C00130110531F080E004C081E044
:1039100002301105D0F3882339F36D01CE01DADDD1
:10392000882341F082E090E0F6019183808388EF64
:103930009FEFABCF83E18C9FF0018D9FF00D1124A1
:10394000EE0DFF1DB38681E0848716870587108AF8
:10395000178681E090E0F6019183808390E080E01B
:1039600094CF4CE050E067ED72E066CA8F929F9270
:10397000BF92CF92DF92EF92FF920F931F93CF935C
:10398000DF93EA01FC01E60FF71F82819381048136
:10399000B580E0911005F0911105309791F482E027
:1039A00090E0998388838CEF9FEFDF91CF911F91F7
:1039B0000F91FF90EF90DF90CF90BF909F908F90EE
:1039C000089520911205309113058217930738F05E
:1039D00082E090E0998388838EEF9FEFE6CF23E12A
:1039E000289F6001299FD00C1124EC0DFD1DE08063
:1039F000F180E114F10499F28281081748F78BE015
:103A0000089F80011124E00EF11EF7018081918151
:103A1000892B29F6BB20E1F2F7E0BF9E400111247B
:103A2000C4010E940429F70191838083E09110056D
:103A3000F0911105EC0DFD1D0190F081E02DE00FDE
:103A4000F11F80819181009739F482E090E09983A1
:103A500088838DEF9FEFA9CFA40170E060E00E9402
:103A6000D73B8091100590911105C80ED91EF60123
:103A700080819181080F191FF801B28281E090E0E6
:103A80009983888390E080E090CFAF92BF92CF92ED
:103A9000DF92FF920F931F93CF93DF93EA01FC0114
:103AA000E60FF71F82819381F48000911005109139
:103AB00011050115110581F482E090E09983888356
:103AC0008CEF9FEFDF91CF911F910F91FF90DF90CF
:103AD000CF90BF90AF9008952091120530911305BB
:103AE0008217930738F082E090E0998388838EEF05
:103AF0009FEFE8CF2FEF2F0D2C3FA8F723E1289F52
:103B00006001299FD00C11240C0D1D1DF80180812E
:103B10009181892B89F6FBE0FF9E50011124C5019C
:103B20000E940429F80191838083E0911005F091AF
:103B30001105EC0DFD1D80819181009739F482E023
:103B400090E0998388838DEF9FEFBCCFA50170E053
:103B500060E00E94D73BE0911005F0911105EC0D5B
:103B6000FD1DF28281E090E09983888390E080E0FF
:103B7000A9CFCF92DF92EF92FF920F931F93CF9333
:103B8000DF93860F971FFC0102811381809110053E
:103B900090911105892B81F082E090E0FA019183E8
:103BA00080838CEF9FEFDF91CF911F910F91FF905A
:103BB000EF90DF90CF900895C801B0E0A0E00197AA
:103BC000A109B1098F3F9F4FA105B10540F082E0E7
:103BD00090E0FA01918380838EEF9FEFE4CF7A012A
:103BE00083E1809F6001819FD00C1124C6010E9457
:103BF0000429EC01009741F482E090E0F701918301
:103C000080838DEF9FEFCFCFA60170E060E00E9430
:103C1000D73BD0931105C093100510931305009363
:103C2000120590E080E02FEF3FEF41E061E070E0AF
:103C30008017910741F481E090E0F7019183808340
:103C400090E080E0B0CF3A8B298B1B864C877E8733
:103C50006D87188A1F8601966396EACFCF92DF920E
:103C6000EF92FF920F931F93CF93DF93EC01D12C30
:103C7000C12C10E000E0F12CE12C6A8160171106E4
:103C800009F0CCF483E0689FB0011124AE014F5ECF
:103C90005F4FC7010E946929009721F02FEF3FEF86
:103CA0003A8B298BDF91CF911F910F91FF90EF906D
:103CB000DF90CF900895E881F981EC0DFD1D4381DF
:103CC00054818D859E85489F9001499F300D589F56
:103CD000300D1124C90101960115110519F44F8108
:103CE00044FD049661E070E00E94B727E816F906EB
:103CF00008F47C010F5F1F4F8BE0C80ED11CBDCFB5
:103D0000F89420910E0530910F0581E021153105C1
:103D100009F080E0232B09F0789408952F923F92C8
:103D20004F925F926F927F928F929F92AF92BF92CB
:103D3000CF92DF92EF92FF920F931F93CF93DF9377
:103D40003C01660E771EF301828193814C01B12CF8
:103D5000A12CC0911005D0911105209769F021E0A8
:103D600030E060911205709113058617970710F0E7
:103D700030E020E0232BD1F482E090E0FA0191833F
:103D800080838EEF9FEFDF91CF911F910F91FF9076
:103D9000EF90DF90CF90BF90AF909F908F907F90EB
:103DA0006F905F904F903F902F90089580927F0288
:103DB00090928002A0928102B092820263E1689F99
:103DC0009001699F300D1124C20FD31FF30181812F
:103DD000833040F082E090E0FA019183808386EFA7
:103DE0009FEFD1CF2A012B813C81232BF1F4288135
:103DF00039819F8191FF2EC0232B09F46FC0209140
:103E000015059A81422F490F5527551FBA0141E0E8
:103E100050E06138710514F050E040E0452B09F4A2
:103E20005DC02A87920F909315058150823008F467
:103E300081C066DF882309F4DAC0F3018181813013
:103E400009F48DC008F47BC0823009F4C8C090E04A
:103E500080E0ADC0232B09F441C0209114059A8164
:103E6000E22FE90FFF27FF1F41E050E0ED3FF10592
:103E700014F050E040E0452B89F12A87920F90938F
:103E80001405D3CFA081B181A20FB31F11966C91FD
:103E9000060F111D0196295F3F4F8417950794F374
:103EA0008D859E85089F1001099F300C189F300C4E
:103EB0001124C114D104D1F48F8184FF17C00E9452
:103EC0000528F5E02F0E311C21E08215930508F43A
:103ED00020E0A701455F5F4F21110EC082E090E016
:103EE000F2019183808387EF9FEF4DCF0E940528D9
:103EF0002FEF221A320AE8CF88819981E80EF91E45
:103F0000F70114830383FFEFCF1ADF0A7A018A8156
:103F10008C151D0409F00CF48CCFE881F981EE0DAD
:103F2000FF1D428150E030E020E010E000E090E032
:103F300080E0B3CFF12CE12CD12CC12CE8CF81E073
:103F400090E09C838B83DDDA882309F480CF81E0C5
:103F500090E00E94FE1680E40E940C1778CF8989B9
:103F60009A89019661F083E090E09C838B8382E0E4
:103F700090E00E94FE1680E40E94061768CF8D81B3
:103F80009E81209175023091760282179307D1F4B9
:103F90006091790270917A02AE014F5E5F4F80911D
:103FA0007702909178020E945B2A0097E1F2789460
:103FB00022E030E0F20131832083892BA9F08DEFDC
:103FC0009FEFE1CE22E082169104A104B1045CF6D9
:103FD000049748F6CE0142DE188A1F86E6CF82E0BB
:103FE00090E09C838B8333CF90E080E0CCCE82E066
:103FF00090E0F2019183808385EF9FEFC4CE8F9292
:104000009F92AF92BF92CF92DF92EF92FF920F9367
:104010001F93CF93DF93EA018C01060F171FF8015E
:104020008181833098F082E090E09983888386EFE5
:104030009FEFDF91CF911F910F91FF90EF90DF9055
:10404000CF90BF90AF909F908F9008958091100572
:1040500090911105892B61F081E090E0209112058B
:1040600030911305232B11F490E080E0892B39F473
:1040700082E090E0998388838EEF9FEFDACF40DE75
:10408000882309F4E1C0F8018181813009F497C0E7
:10409000E8F0823099F42091120530911305E091F7
:1040A0001005F091110590E080E041E050E0281704
:1040B000390709F0BFC025DA811117C0789481E073
:1040C00090E09983888390E080E0B3CF209112053F
:1040D00030911305E0911005F091110590E080E01A
:1040E00041E050E02817390741F481E090E00E9458
:1040F000FE1680E40E940C17E1CF63817481672B68
:1041000011F05483438301967396ECCFE091100530
:10411000F0911105E00FF11F238134812230310528
:10412000D9F4218932892F3F3F4FB1F4258136815F
:1041300040917502509176022417350761F5AF0161
:104140004F5E5F4F6091790270917A0280917702A1
:10415000909178020E945B2AEFEFCE1ADE0AEE0AF7
:10416000FE0A0D5E1F4F409112055091130570E03D
:1041700060E0C416D506E606F7064CF5009731F266
:104180007894892B09F49BCF82E090E0998388830F
:104190008DEF9FEF4ECF42E0C416D104E104F1044D
:1041A000DCF624303105C0F6CF0158DDE091100572
:1041B000F0911105E00FF11F108A1786CDCF10E0A6
:1041C00000E090E080E0C12CD12C7601CCCF0097AC
:1041D000B9F610E000E0812C912C540183E0E82E28
:1041E000F12C1AC0E0911005F0911105E00FF11FBC
:1041F00083819481029749F4F482E38282E090E023
:104200000E94FE1680E40E940617FFEF8F1A9F0A95
:10421000AF0ABF0A0D5E1F4F8091120590911305E2
:10422000B0E0A0E088169906AA06BB06DCF290E092
:1042300080E0A6CF638174816230710511F45483EC
:1042400043830196739633CF82E090E0998388830D
:1042500085EF9FEFEECE0097B9F48FEFFB018083DF
:1042600020917F023091800243E1429FC001439F31
:10427000900D1124E0911005F0911105E80FF91F40
:104280008285FB01818308950C94B51688E090E047
:10429000FA019183808390E080E0089510920F05E9
:1042A00010920E05E0E1F5E086E0DF011D928A95AF
:1042B000E9F781EB9CE190930D0580930C0508953F
:1042C00080910C0590910D0508952F923F924F9289
:1042D0005F926F927F928F929F92AF92BF92CF9296
:1042E000DF92EF92FF920F931F93CF93DF93CDB79F
:1042F000DEB760970FB6F894DEBF0FBECDBFF8945F
:10430000E0910E05F0910F053196F0930F05E093C3
:104310000E057894A0911005B0911105BA83A98378
:10432000109709F4FAC1E0911205F0911305EF2BF3
:1043300009F4F3C128874B875C876D877E879A874E
:104340008987B88BAF87312C212CF12C512C412C33
:1043500080911205909113052816390610F4FF205C
:1043600029F1F89480910E0590910F050197909393
:104370000F0580930E057894C20160960FB6F894ED
:10438000DEBF0FBECDBFDF91CF911F910F91FF9088
:10439000EF90DF90CF90BF90AF909F908F907F90E5
:1043A0006F905F904F903F902F900895B10190E0F3
:1043B00080E089D4682EEF85F889878181FD3DC032
:1043C000838194810397C9F5258136813C832B83B2
:1043D00089859A852817390781F5C101DCD8782E9F
:1043E0008823A9F1AF85B8891F968D919C9150972C
:1043F000019621E01D964D915C918417950709F077
:1044000020E02F83B12CA12CEF85F88982818A15B9
:104410001B0419F014F0FF20E9F0F885FF2309F4DC
:104420006CC1AF85B88950961C921E921F9766206A
:1044300021F0B10190E080E048D4FFEF2F1A3F0A4D
:104440002F8538892D5E3F4F388B2F8781CFB1E084
:10445000BF83D8CFC1D49E838D83E885EE23E9F056
:10446000772009F43CC1AF85B8891F968D919C9146
:10447000892B79F0BBE0BA9DC001BB9D900D112442
:10448000AF85B889ED91FC91E80FF91F8581968180
:10449000F4D6BFEFAB1ABB0AB7CF81E0772039F073
:1044A000EF85F88927853089232B09F080E0F82EE5
:1044B000E12CA114B10439F4AF85B8891796EC90BA
:1044C000E4FAEE24E0F8BBE0BA9D6001BB9DD00C9D
:1044D0001124882309F424C1AF85B889ED91FC919A
:1044E0001197EC0DFD1D438154811D962D913C913A
:1044F000429FC001439F900D529F900D1124E110E7
:104500005DC001969087878361E070E08781908528
:104510002ED5EF85F88921893289008111810C0D12
:104520001D1D2F3F320709F44BC0BC01C9010E9479
:104530009C2AD80116969C938E931597AF85B889BF
:10454000ED91FC911197EC0DFD1D05811681011572
:10455000110509F4CDC0ED81FE810E0F1F1F1A96C3
:104560008C918A0DD8018C93E1102FC00F5F1F4FE3
:10457000AF85B889ED91FC91EC0DFD1D1287018787
:10458000AF85B889ED91FC91EC0DFD1D858196817B
:10459000892B09F4A4C080917502909176022B8139
:1045A0003C812817390709F465C0772011F001858F
:1045B0001285912C812C1A8219824AC00596A2CFAD
:1045C00023D6F80196838583B9CF8B859C85AD85ED
:1045D000BE85F80181839283A383B4830B5F1F4F51
:1045E000C7CFE080F180E80CF91CD70113966D91DC
:1045F0007C9114978C918F3F09F473C0E1E0F0E057
:1046000002C0EE0FFF1F8A95E2F7CF01092E000CC2
:10461000AA0BBB0BFB014081518162817381842312
:104620009523A623B72321E0892B8A2B8B2B09F412
:1046300020E0D8012C93D70111968C91080F111D01
:10464000E981FA813196FA83E983F7E08F0E911CB4
:10465000AF85B889ED91FC91EC0DFD1D828129811A
:104660003A818217130611F00CF0BBCF772011F0BE
:10467000128701873F81332391F1AF85B889ED918E
:10468000FC91EC0DFD1D61E070E0878190856FD499
:10469000AF85B889ED91FC91EC0DFD1DE780F084AC
:1046A00045815681E1E0F0E0662011F0F0E0E0E0C5
:1046B0000D811E819C01B101882799278E1B9F0BBC
:1046C0008ED32C01892B59F0EF85F8898081918157
:1046D000C80ED91ED60115968D919C91CED5F12C80
:1046E000D8CEF701418150E0C8010E94CE3BA3CF54
:1046F00086EF482E55245A94CCCEEF85F8898785CD
:1047000090890196908B8787258536858217930738
:1047100009F08DCE108A17868ACE512C412C21CEDD
:1047200010E000E02DCF2F923F924F925F926F9258
:104730007F928F929F92AF92BF92CF92DF92EF9231
:10474000FF920F931F93CF93DF9380911005909169
:10475000110510E000E0892BA9F0D2DA0AEF1FEF73
:10476000882381F02090120530901305C091100528
:10477000D0911105D12CC12C10E000E02C143D0487
:10478000A9F47894C801DF91CF911F910F91FF9008
:10479000EF90DF90CF90BF90AF909F908F907F90E1
:1047A0006F905F904F903F902F900895C6010E94A8
:1047B000CB1A882309F18B819C810397E9F48F85BB
:1047C0009889892BC9F0B60190E080E07CD221E085
:1047D00030E0882311F030E020E044245524421AD0
:1047E000530AB12CA12C912C812C8A818815190493
:1047F00009F038F4188A1F864FEFC41AD40A63965A
:10480000BDCFE881F981EA0DFB1D85819681892B59
:10481000A1F161E070E087819085A9D33C01DCD2F1
:104820008C01E881F981EA0DFB1D81859285258146
:104830003681200F311FAC01421B530B9A01478177
:104840005085421B530B70E060E00E94D73BE8812B
:10485000F981EA0DFB1DE780F084458156819301C3
:10486000B601C201BCD28C01892B39F0E881F981F3
:10487000EA0DFB1D8581968100D55FEF851A950AAB
:104880008BE0A80EB11CB1CF3BCA789408952F924B
:104890003F924F925F926F927F929F92AF92BF92A0
:1048A000CF92DF92EF92FF920F931F93CF93DF93FC
:1048B00000D000D0CDB7DEB70091100510911105E2
:1048C000992493940115110509F43EC0A090120596
:1048D000B090130515DA982E8823B1F110921105C6
:1048E00010921005109213051092120510921405E3
:1048F000109215058FEF9FEFDC0180937F0290935C
:104900008002A0938102B0938202789480D31E83A8
:104910000D83C12CD12C7601C501B0E0A0E08983C4
:104920009A83AB83BC8322242A94322C89819A8176
:10493000AB81BC81C816D906EA06FB06F4F0C801B3
:104940009CD480E40E940C17892D26960FB6F8940B
:10495000DEBF0FBECDBFDF91CF911F910F91FF90B2
:10496000EF90DF90CF90BF90AF909F907F906F902F
:104970005F904F903F902F900895AD81BE81159626
:104980008D919C9116972091750230917602821735
:104990009307D1F451968D919C91BCD5ED81FE8108
:1049A00080819181B12CA12C412C512C3201892B79
:1049B00091F5BFEFCB1ADB0AEB0AFB0AED81FE8112
:1049C0007396FE83ED83B2CFB2E0CB16D104E1043F
:1049D000F10424F7049710F7ED81FE818189928913
:1049E0008F3F980709F011D5AD81BE8152963C9258
:1049F0002E925197D3CF8A0D9B1DDC018D919C91F6
:104A0000009709F03AD4BFEF4B1A5B0A6B0A7B0A96
:104A1000EBE0AE0EB11CAD81BE818D919C911197E2
:104A200012964C9150E070E060E044165506660620
:104A300077060CF322D4BDCFCF93DF93EA0127DFB3
:104A4000811109C082E090E09983888385EF9FEF10
:104A5000DF91CF91089581E090E00E94FE1681E001
:104A600090E09983888390E080E0F2CF10DF10928D
:104A70000D0510920C05089542E050E06FE173E0DF
:104A80000C941C17FF920F931F93CF93DF938A010F
:104A9000EC01C60FD71FF980B9D20897F81619068E
:104AA00071F068F082E090E0F801918380838EEFEE
:104AB0009FEFDF91CF911F910F91FF9008956C812F
:104AC0007D818E819F814B810E94B119811108C027
:104AD00082E090E0F8019183808384EF9FEFE9CF3B
:104AE000F9800E94AC194F2D50E0BE01685F7F4FE6
:104AF0000E94CE3B89810E941B1A81E090E0F80160
:104B00009183808390E080E0D4CFDF92EF92FF9298
:104B10000F931F93CF93DF938A01EC01C60FD71F2A
:104B20000E94AC197C01D98071D2DD2059F0029726
:104B300021E030E0D816190619F010F030E020E03E
:104B4000232B79F482E090E0F801918380838EEF4B
:104B50009FEFDF91CF911F910F91FF90EF90DF902A
:104B60000895EF2841F482E090E0F801918380837A
:104B700084EF9FEFEECFF9800E94AC194F2D50E0EB
:104B8000BE016E5F7F4F0E94CE3B89810E941B1A3F
:104B900081E090E0F8019183808390E080E0D9CFBC
:104BA0008CE395E290931705809316050895809104
:104BB00016059091170508950895FC011182108241
:104BC000938382830895DB011D921C92DC0112966F
:104BD000ED91FC9113977183608313967C936E9390
:104BE00012970895FC0180819181DB018D939C9344
:104BF000A081B181109741F08D919C919183808328
:104C0000892B11F4F383E2830895FC018081918163
:104C1000DB018D939C93892B11F4738362837183E1
:104C200060830895FC01118210829383828308952A
:104C3000CF93DF931F921F92CDB7DEB71A821982EE
:104C4000F894BE016F5F7F4F8DE195E0CBDF8981E6
:104C50009A81009709F011D389819A81892B89F76C
:104C6000BE016F5F7F4F81E295E0BCDF89819A8151
:104C7000009709F002D389819A81892B89F778946A
:104C80000F900F90DF91CF910895CF93DF931F92F4
:104C90001F92CDB7DEB71A821982F894BE016F5FFA
:104CA0007F4F89E195E09EDF89819A81009709F025
:104CB000E4D289819A81892B89F778940F900F909B
:104CC000DF91CF91089581E0089590E080E008950C
:104CD000EF92FF920F931F93CF93DF931F921F9238
:104CE000CDB7DEB71A8219828091180507EF1FEF42
:104CF0008823A1F1F894BE016F5F7F4F81E295E0B8
:104D000071DF789489819A81EE24E394F12C892BC8
:104D100051F4F894BE016F5F7F4F8DE195E062DF43
:104D20007894F12CE12C89819A810EEF1FEF009786
:104D3000A9F0FC014281538164E070E043D68C010C
:104D4000892B61F0F89469817A81C701880F991FD6
:104D5000880F991F835E9A4F58DF7894C8010F908F
:104D60000F90DF91CF911F910F91FF90EF900895D9
:104D70000F931F93CF93DF9300D01F92CDB7DEB771
:104D80001C821B821A8219828091180507EF1FEF7F
:104D90008823C1F0AE014D5F5F4F64E070E0CE014B
:104DA000019683D68C01892B69F4E981FA818B8184
:104DB0009C8193838283F89469817A8189E195E06B
:104DC00002DF7894C8010F900F900F900F90DF9141
:104DD000CF911F910F91089588D7049608958F92CF
:104DE0009F92AF92BF92CF92DF92EF92FF920F937A
:104DF0001F93CF93DF931F921F92CDB7DEB71A8216
:104E00001982BC016F5F7F4F6330710598F0AA244F
:104E1000AA94BA2CC5010F900F90DF91CF911F91EA
:104E20000F91FF90EF90DF90CF90BF90AF909F9049
:104E30008F9008954115510551F3480159018A0198
:104E40006C01CADF8815990511F7E114F104F9F234
:104E50008E0D9F1DA816B906D0F2809118058823E3
:104E6000F1F0F894B501645071099701AE014F5FFC
:104E70005F4FC8010496AED65C01892B71F489811D
:104E80009A81F80193838283C601880F991F880F46
:104E9000991FB801835E9A4F96DE7894BBCF87EF57
:104EA000A82EBB24BA94B6CFAF92BF92CF92DF9216
:104EB000EF92FF920F931F93CF93DF931F921F9256
:104EC000CDB7DEB71A821982892B09F047C0611568
:104ED000710509F443C04115510509F43FC021157E
:104EE000310509F43BC001151105C1F18091180588
:104EF0008823B9F179016A015B01F894BE016F5F03
:104F00007F4F89E195E06EDE789489819A810097E0
:104F100059F1DC0112966D917C91A801049673D62B
:104F20008C01E981FA81D501ED93FC938281938113
:104F30000496F601918380834FDFD7018D939C9374
:104F4000C8010F900F90DF91CF911F910F91FF90AB
:104F5000EF90DF90CF90BF90AF9008950FEF1FEFCD
:104F6000EFCF07EF1FEFECCF0EEF1FEFE9CFCF939F
:104F7000DF93EC01672B71F4C1D68C179D0760F0AD
:104F8000B4D62496C80FD91FB3D68C0F9D1FDF91BE
:104F9000CF910895B0D6F1CF90E080E0F8CF0F9395
:104FA0001F93CF93DF932091180521112BC08B0104
:104FB000EC018DE195E001DE81E295E0FEDD89E125
:104FC00095E0FBDD97D00097C1F498D670E060E0E3
:104FD000CEDF43E852E062E070E07BD1009769F4F5
:104FE00080918302909184029BD6B801CE01D0D4E7
:104FF000009719F421E020931805DF91CF911F91BC
:105000000F91089584EF9FEFF8CF75C677C6CF93C1
:10501000DF9377D6EC01892B11F40ADE36DECE0160
:10502000DF91CF910895CF93DF936BD6EC01892B5D
:1050300009F4FEDDCE01DF91CF91089580918302C6
:10504000909184020895CF93DF9380911805D0E06A
:10505000C0E08823D1F069D6EC01892BB1F4E8DDFA
:1050600014DE8091830290918402CFD1B5D2EC01FD
:10507000892B59F48DE195E0D5DD81E295E0D2DD13
:1050800089E195E0CFDD10921805CE01DF91CF9137
:105090000895EF92FF920F931F93CF93DF93EC014C
:1050A0007A018B010F5F1F4F0E9DA0010F9D500DC8
:1050B0001E9D500D112470E060E00E94D73B90E0EF
:1050C00080E0F0E0E0E02FEFE816F90639F4DF9138
:1050D000CF911F910F91FF90EF9008951A8219823E
:1050E0002883309711F0D283C1830196FE01C00F4F
:1050F000D11FEACFAF92BF92CF92DF92EF92FF9291
:105100000F931F93CF93DF9380E996E07C012CEF00
:10511000E22243E050E065E872E08BE892E0E5D3FC
:1051200085E8C82E82E0D82E9BE8A92E92E0B92E01
:10513000C9E5D7E08E01D6014D915D916D01F50174
:10514000619171915F01D8011196FC92EE921596D2
:105150005C934E93149713965C934E931297179605
:105160007C936E9316979B012F5F3F4F249FC00146
:10517000259F900D349F900D112419969C938E932A
:105180001897E114F10411F0C70183DFF80180855D
:105190009185E80EF91E065F1F4FFBE8CF16F2E07F
:1051A000DF0649F6E7E2F5E086E691E0DF019C01E3
:1051B0001D9221503040E1F71092260510922505EE
:1051C0001F8E1E8E1BA21AA219A218A21DA21CA21B
:1051D0001FA21EA22A9637E0C737D30789F710927D
:1051E000560710925507109258071092570790E0F3
:1051F00080E0DF91CF911F910F91FF90EF90DF90B2
:10520000CF90BF90AF9008950097F1F0F894ABE87D
:10521000B2E0E9E5F7E030E020E04D915D9148171C
:105220005907A8F0428153814115510581F08AE068
:10523000829FF001839FF00D1124E75AF84F80817F
:105240009181009759F4789490E080E008952F5F61
:105250003F4F3A962330310501F7F5CFDC01119627
:105260006D917C91718360834150510953834283D6
:10527000FC012193CF0178940895009749F1DC0156
:105280008E91863041F4E0915707F091580730979E
:10529000F9F0CD0119948630D8F4282F30E0F89435
:1052A0008FEF8C938AE0829FF001839FF00D112491
:1052B000E75AF84F8081918112969C938E931197B3
:1052C000B183A083828193810196938382837894B2
:1052D0000895CF92DF92EF92FF920F931F93CF9397
:1052E000DF939C018AE295E08C7F4115510509F41A
:1052F00089C02115310509F485C06115710509F4CE
:1053000081C08A01AB01B9016D5F7F4F6C7F9B014A
:105310002F5F3F4F249F7001259FF00C349FF00CAE
:105320001124F894E9E5F7E023E030E0E901A6A1D3
:10533000B7A1C68CD78CCD2809F058C0109709F0BA
:105340003EC0C0902505D090260523E631E02C19FB
:105350003D092E153F0530F47894CFEFDFEF86EF4F
:105360009FEF21C02AE02C9FF0012D9FF00D11240A
:10537000E75AF84F91838083558344835383428354
:1053800077836683F186E086009709F082DEEC0C75
:10539000FD1CF0922605E09225057894CF3FDC07AE
:1053A000F1F290E080E0F801D183C083DF91CF91EA
:1053B0001F910F91FF90EF90DF90CF900895AE1561
:1053C000BF05A0F02AE02C9FF0012D9FF00D1124C5
:1053D000E75AF84F918380835583448353834283F4
:1053E000778366830097C9F254DED7CF8A0F9B1F5D
:1053F0002F5F3F4F3A962630310509F097CFCFEF18
:10540000DFEFCBCF8FEF9FEFD1CF9C0103970397B7
:1054100008F04EC0F89485E09AE0482F50E0241739
:1054200035079CF191E08AE0829FF001839FF00DA7
:105430001124E75AF84F11821082158214821382C8
:105440001282178216829923E1F0809125059091AE
:105450002605E9E5F7E0268D378D232B49F426A1B3
:1054600037A12115310521F0821B930B17A216A23B
:105470003A9627E0E737F20771F790932605809375
:105480002505789490E080E00895949FF001959F21
:10549000F00D1124E75AF84F40815181452B31F42A
:1054A00040855185452B11F48150B7CF90E0BBCF9B
:1054B0008FEF9FEF08954115510549F1009739F19C
:1054C0006115710521F1F894209155073091560727
:1054D000232BB9F42091570730915807232B89F4D7
:1054E000909356078093550770935807609357071A
:1054F000789426E030E090E080E0FA013183208368
:10550000089578942FEF3FEF86EF9FEFF6CF8FEF60
:105510009FEF0895069769F4F89410925607109239
:1055200055071092580710925707789490E080E042
:1055300008958FEF9FEF08956115710519F4F0E05C
:10554000E0E011C08630910581F4E0915507F091BB
:1055500056073097A1F3CB0101961995009779F37F
:10556000FC0186E08193CF0108959C01235031090D
:105570002330310520F72AE0289FD001299FB00D64
:105580001124A75AB84F2D913C911197232BB9F2B2
:1055900016962D913C9117972617370780F2F894AD
:1055A00012962D913C9113972115310529F0ED911B
:1055B000FC911197309711F47894C1CF41815281B9
:1055C00011965C934E932150310913963C932E9380
:1055D000129781937894C7CFEDE8F6E088ECDF016D
:1055E0001D928A95E9F7E7E2F5E086E691E0DF01B2
:1055F0009C011D9221503040E1F710922605109237
:105600002505E9E5F7E08CE3DF011D928A95E9F7CE
:10561000E5E5F7E084E0DF011D928A95E9F790E087
:1056200080E00895CF93DF93C0919102D0919202D0
:10563000CF3FDC0759F423D49093920280939102D8
:1056400097FF09C0D0939202C093910284EF9FEF1D
:10565000DF91CF91089590E080E0FACF82309105FC
:1056600028F48093950790E080E008958FEF9FEFF6
:1056700008954F925F926F927F92AF92BF92CF92B6
:10568000DF92EF92FF920F931F93CF93DF931F92BE
:105690001F92CDB7DEB71A821982009709F479C03C
:1056A0006115710509F475C0209191023091920243
:1056B00007EF1FEF2F3F3F4F09F445C06B015C011F
:1056C000412C512C3201F12CE12C10E000E09E0124
:1056D0002F5F3F4FA6014E195F09B5016E0D7F1D6B
:1056E00080919102909192022ED4892B09F04BC0A7
:1056F00089819A81009741F4E114F10429F4209101
:105700009507222309F442C0E80EF91EEC14FD04AB
:10571000D0F480E8481684E858068EE168067104E3
:1057200020F560E070E0CB010E94A0352AE0420E37
:10573000511C611C711C0A3F4FEF140721F0043FFC
:105740008FEF1807A1F4C8010F900F90DF91CF9150
:105750001F910F91FF90EF90DF90CF90BF90AF908F
:105760007F906F905F904F90089501EF1FEF81E061
:1057700090E0013F2FEF120711F090E080E0892BBD
:1057800009F4A5CFE0CF04EF1FEFDDCF0AEF1FEF45
:10579000DACF0FEF1FEFD7CF4F925F926F927F92CA
:1057A000AF92BF92CF92DF92EF92FF920F931F932F
:1057B000CF93DF931F921F92CDB7DEB71A82198263
:1057C000009709F479C06115710509F475C020913D
:1057D00091023091920207EF1FEF2F3F3F4F09F4E4
:1057E00045C06B015C01412C512C3201F12CE12CA4
:1057F00010E000E09E012F5F3F4FA6014E195F09A8
:10580000B5016E0D7F1D80919102909192024ED351
:10581000892B09F04BC089819A81009741F4E114EA
:10582000F10429F420919507222309F442C0E80EDF
:10583000F91EEC14FD04D0F480E8481686E95806F9
:1058400088E96806710420F560E070E0CB010E94F1
:10585000A0352AE0420E511C611C711C0E3F4FEF17
:10586000140721F0043F8FEF1807A1F4C8010F902F
:105870000F90DF91CF911F910F91FF90EF90DF90EC
:10588000CF90BF90AF907F906F905F904F900895B2
:1058900002EF1FEF81E090E0023F2FEF120711F0BF
:1058A00090E080E0892B09F4A5CFE0CF04EF1FEF53
:1058B000DDCF0EEF1FEFDACF0FEF1FEFD7CF8091C5
:1058C0009102909192028F3F980749F0D0D2892B94
:1058D00049F48FEF9FEF909392028093910290E0B2
:1058E00080E0089584EF9FEF0895CF92DF92EF92CA
:1058F000FF920F931F93CF93DF9321E04115510542
:1059000009F020E04150510921112CC0DC01FB01BC
:10591000D12CC12C21E022C03FEFC31AD30A7D0154
:105920000D911D91E701EA80FB80E016F106A8F4D5
:1059300020813181E280F380F182E082338322830F
:10594000ED90FC9011979D0122503109E901F982F7
:10595000E88211961C930E9320E03296C416D50669
:10596000D8F2D2CFDF91CF911F910F91FF90EF909E
:10597000DF90CF900895FC01680F791F90E080E0E0
:10598000E617F70709F408952191820F911DF8CFCA
:1059900020919607211113C045DE009791F41092D3
:1059A0009C0710929B0710929A07109299071092E9
:1059B00098071092970721E020939607089584EFA7
:1059C0009FEF0895AF92BF92CF92DF92EF92FF9236
:1059D0000F931F93CF93DF93009709F460C0463075
:1059E000510508F45CC020919607C7EFDFEF222332
:1059F00009F449C08C01060F171FF801C080D1803F
:105A0000C114D10409F44EC096012A5F3F4F4217DA
:105A1000530708F447C07C0180919B0790919C0735
:105A200093838283B6016C5F7F4F5801A60EB71E29
:105A3000C801A1DFF5019183808364E070E0C801B3
:105A400018DEEC01892BF9F481E090E007DEB60165
:105A5000C80104960EDEEC01892B91F462E070E03F
:105A6000C50107DEEC01892B59F4C70106DC8091E2
:105A70009B0790919C07019690939C0780939B07AE
:105A800090E080E0EBDDCE01DF91CF911F910F918F
:105A9000FF90EF90DF90CF90BF90AF900895CFEF41
:105AA000DFEFF1CFC9EFDFEFEECF6F927F928F92F2
:105AB0009F92AF92BF92CF92DF92EF92FF920F939D
:105AC0001F93CF93DF9300D01F92CDB7DEB700971F
:105AD00009F47AC04115510509F476C02091960762
